{
  "contractName": "PixelFactory",
  "abi": [
    {
      "constant": true,
      "inputs": [],
      "name": "nftAddress",
      "outputs": [
        {
          "name": "",
          "type": "address"
        }
      ],
      "payable": false,
      "stateMutability": "view",
      "type": "function"
    },
    {
      "constant": true,
      "inputs": [],
      "name": "baseURI",
      "outputs": [
        {
          "name": "",
          "type": "string"
        }
      ],
      "payable": false,
      "stateMutability": "view",
      "type": "function"
    },
    {
      "constant": false,
      "inputs": [],
      "name": "renounceOwnership",
      "outputs": [],
      "payable": false,
      "stateMutability": "nonpayable",
      "type": "function"
    },
    {
      "constant": true,
      "inputs": [],
      "name": "owner",
      "outputs": [
        {
          "name": "",
          "type": "address"
        }
      ],
      "payable": false,
      "stateMutability": "view",
      "type": "function"
    },
    {
      "constant": true,
      "inputs": [],
      "name": "isOwner",
      "outputs": [
        {
          "name": "",
          "type": "bool"
        }
      ],
      "payable": false,
      "stateMutability": "view",
      "type": "function"
    },
    {
      "constant": true,
      "inputs": [],
      "name": "proxyRegistryAddress",
      "outputs": [
        {
          "name": "",
          "type": "address"
        }
      ],
      "payable": false,
      "stateMutability": "view",
      "type": "function"
    },
    {
      "constant": false,
      "inputs": [
        {
          "name": "newOwner",
          "type": "address"
        }
      ],
      "name": "transferOwnership",
      "outputs": [],
      "payable": false,
      "stateMutability": "nonpayable",
      "type": "function"
    },
    {
      "inputs": [
        {
          "name": "_proxyRegistryAddress",
          "type": "address"
        },
        {
          "name": "_nftAddress",
          "type": "address"
        }
      ],
      "payable": false,
      "stateMutability": "nonpayable",
      "type": "constructor"
    },
    {
      "anonymous": false,
      "inputs": [
        {
          "indexed": true,
          "name": "previousOwner",
          "type": "address"
        },
        {
          "indexed": true,
          "name": "newOwner",
          "type": "address"
        }
      ],
      "name": "OwnershipTransferred",
      "type": "event"
    },
    {
      "constant": true,
      "inputs": [],
      "name": "name",
      "outputs": [
        {
          "name": "",
          "type": "string"
        }
      ],
      "payable": false,
      "stateMutability": "view",
      "type": "function"
    },
    {
      "constant": true,
      "inputs": [],
      "name": "symbol",
      "outputs": [
        {
          "name": "",
          "type": "string"
        }
      ],
      "payable": false,
      "stateMutability": "view",
      "type": "function"
    },
    {
      "constant": true,
      "inputs": [],
      "name": "supportsFactoryInterface",
      "outputs": [
        {
          "name": "",
          "type": "bool"
        }
      ],
      "payable": false,
      "stateMutability": "view",
      "type": "function"
    },
    {
      "constant": true,
      "inputs": [],
      "name": "numOptions",
      "outputs": [
        {
          "name": "",
          "type": "uint256"
        }
      ],
      "payable": false,
      "stateMutability": "view",
      "type": "function"
    },
    {
      "constant": false,
      "inputs": [
        {
          "name": "_optionId",
          "type": "uint256"
        },
        {
          "name": "_toAddress",
          "type": "address"
        }
      ],
      "name": "mint",
      "outputs": [],
      "payable": false,
      "stateMutability": "nonpayable",
      "type": "function"
    },
    {
      "constant": true,
      "inputs": [
        {
          "name": "_optionId",
          "type": "uint256"
        }
      ],
      "name": "canMint",
      "outputs": [
        {
          "name": "",
          "type": "bool"
        }
      ],
      "payable": false,
      "stateMutability": "view",
      "type": "function"
    },
    {
      "constant": true,
      "inputs": [
        {
          "name": "_optionId",
          "type": "uint256"
        }
      ],
      "name": "tokenURI",
      "outputs": [
        {
          "name": "",
          "type": "string"
        }
      ],
      "payable": false,
      "stateMutability": "view",
      "type": "function"
    },
    {
      "constant": false,
      "inputs": [
        {
          "name": "_from",
          "type": "address"
        },
        {
          "name": "_to",
          "type": "address"
        },
        {
          "name": "_tokenId",
          "type": "uint256"
        }
      ],
      "name": "transferFrom",
      "outputs": [],
      "payable": false,
      "stateMutability": "nonpayable",
      "type": "function"
    },
    {
      "constant": true,
      "inputs": [
        {
          "name": "_owner",
          "type": "address"
        },
        {
          "name": "_operator",
          "type": "address"
        }
      ],
      "name": "isApprovedForAll",
      "outputs": [
        {
          "name": "",
          "type": "bool"
        }
      ],
      "payable": false,
      "stateMutability": "view",
      "type": "function"
    },
    {
      "constant": true,
      "inputs": [
        {
          "name": "_tokenId",
          "type": "uint256"
        }
      ],
      "name": "ownerOf",
      "outputs": [
        {
          "name": "_owner",
          "type": "address"
        }
      ],
      "payable": false,
      "stateMutability": "view",
      "type": "function"
    }
  ],
  "bytecode": "0x6080604052606060405190810160405280603181526020017f68747470733a2f2f6c6173742d706978656c2d6170692e6865726f6b7561707081526020017f2e636f6d2f6170692f666163746f72792f000000000000000000000000000000815250600390805190602001906200007892919062000220565b506127106006556002600755600060085560016009556019600a55611388600b55611388600c55348015620000ac57600080fd5b5060405160408062001b368339810180604052810190808051906020019092919080519060200190929190505050336000806101000a81548173ffffffffffffffffffffffffffffffffffffffff021916908373ffffffffffffffffffffffffffffffffffffffff1602179055506000809054906101000a900473ffffffffffffffffffffffffffffffffffffffff1673ffffffffffffffffffffffffffffffffffffffff16600073ffffffffffffffffffffffffffffffffffffffff167f8be0079c531659141344cd1fd0a4f28419497f9722a3daafe3b4186f6b6457e060405160405180910390a381600160006101000a81548173ffffffffffffffffffffffffffffffffffffffff021916908373ffffffffffffffffffffffffffffffffffffffff16021790555080600260006101000a81548173ffffffffffffffffffffffffffffffffffffffff021916908373ffffffffffffffffffffffffffffffffffffffff1602179055505050620002cf565b828054600181600116156101000203166002900490600052602060002090601f016020900481019282601f106200026357805160ff191683800117855562000294565b8280016001018555821562000294579182015b828111156200029357825182559160200191906001019062000276565b5b509050620002a39190620002a7565b5090565b620002cc91905b80821115620002c8576000816000905550600101620002ae565b5090565b90565b61185780620002df6000396000f3006080604052600436106100f1576000357c0100000000000000000000000000000000000000000000000000000000900463ffffffff16806306fdde03146100f657806323b872dd146101865780634b97aed9146101f35780635bf8633a1461021e5780635dd871a3146102755780636352211e146102ba5780636c0360eb14610327578063715018a6146103b75780638da5cb5b146103ce5780638f32d59b1461042557806394bf804d1461045457806395d89b41146104a1578063c311c52314610531578063c87b56dd14610560578063cd7c032614610606578063e985e9c51461065d578063f2fde38b146106d8575b600080fd5b34801561010257600080fd5b5061010b61071b565b6040518080602001828103825283818151815260200191508051906020019080838360005b8381101561014b578082015181840152602081019050610130565b50505050905090810190601f1680156101785780820380516001836020036101000a031916815260200191505b509250505060405180910390f35b34801561019257600080fd5b506101f1600480360381019080803573ffffffffffffffffffffffffffffffffffffffff169060200190929190803573ffffffffffffffffffffffffffffffffffffffff16906020019092919080359060200190929190505050610758565b005b3480156101ff57600080fd5b50610208610767565b6040518082815260200191505060405180910390f35b34801561022a57600080fd5b50610233610771565b604051808273ffffffffffffffffffffffffffffffffffffffff1673ffffffffffffffffffffffffffffffffffffffff16815260200191505060405180910390f35b34801561028157600080fd5b506102a060048036038101908080359060200190929190505050610797565b604051808215151515815260200191505060405180910390f35b3480156102c657600080fd5b506102e5600480360381019080803590602001909291905050506108c3565b604051808273ffffffffffffffffffffffffffffffffffffffff1673ffffffffffffffffffffffffffffffffffffffff16815260200191505060405180910390f35b34801561033357600080fd5b5061033c6108d4565b6040518080602001828103825283818151815260200191508051906020019080838360005b8381101561037c578082015181840152602081019050610361565b50505050905090810190601f1680156103a95780820380516001836020036101000a031916815260200191505b509250505060405180910390f35b3480156103c357600080fd5b506103cc610972565b005b3480156103da57600080fd5b506103e3610a44565b604051808273ffffffffffffffffffffffffffffffffffffffff1673ffffffffffffffffffffffffffffffffffffffff16815260200191505060405180910390f35b34801561043157600080fd5b5061043a610a6d565b604051808215151515815260200191505060405180910390f35b34801561046057600080fd5b5061049f60048036038101908080359060200190929190803573ffffffffffffffffffffffffffffffffffffffff169060200190929190505050610ac4565b005b3480156104ad57600080fd5b506104b6610e3f565b6040518080602001828103825283818151815260200191508051906020019080838360005b838110156104f65780820151818401526020810190506104db565b50505050905090810190601f1680156105235780820380516001836020036101000a031916815260200191505b509250505060405180910390f35b34801561053d57600080fd5b50610546610e7c565b604051808215151515815260200191505060405180910390f35b34801561056c57600080fd5b5061058b60048036038101908080359060200190929190505050610e85565b6040518080602001828103825283818151815260200191508051906020019080838360005b838110156105cb5780820151818401526020810190506105b0565b50505050905090810190601f1680156105f85780820380516001836020036101000a031916815260200191505b509250505060405180910390f35b34801561061257600080fd5b5061061b610f3a565b604051808273ffffffffffffffffffffffffffffffffffffffff1673ffffffffffffffffffffffffffffffffffffffff16815260200191505060405180910390f35b34801561066957600080fd5b506106be600480360381019080803573ffffffffffffffffffffffffffffffffffffffff169060200190929190803573ffffffffffffffffffffffffffffffffffffffff169060200190929190505050610f60565b604051808215151515815260200191505060405180910390f35b3480156106e457600080fd5b50610719600480360381019080803573ffffffffffffffffffffffffffffffffffffffff16906020019092919050505061115f565b005b60606040805190810160405280601f81526020017f4c61737420506978656c2047616d6520506978656c204974656d2053616c6500815250905090565b6107628183610ac4565b505050565b6000600754905090565b600260009054906101000a900473ffffffffffffffffffffffffffffffffffffffff1681565b600080600080600754851015156107b157600093506108bb565b600260009054906101000a900473ffffffffffffffffffffffffffffffffffffffff1692508273ffffffffffffffffffffffffffffffffffffffff166318160ddd6040518163ffffffff167c0100000000000000000000000000000000000000000000000000000000028152600401602060405180830381600087803b15801561083a57600080fd5b505af115801561084e573d6000803e3d6000fd5b505050506040513d602081101561086457600080fd5b810190808051906020019092919050505091506000905060085485141561089a57600190508061138803600454111593506108bb565b6009548514156108ba57600a54905080600c5403600554111593506108bb565b5b505050919050565b60006108cd610a44565b9050919050565b60038054600181600116156101000203166002900480601f01602080910402602001604051908101604052809291908181526020018280546001816001161561010002031660029004801561096a5780601f1061093f5761010080835404028352916020019161096a565b820191906000526020600020905b81548152906001019060200180831161094d57829003601f168201915b505050505081565b61097a610a6d565b151561098557600080fd5b600073ffffffffffffffffffffffffffffffffffffffff166000809054906101000a900473ffffffffffffffffffffffffffffffffffffffff1673ffffffffffffffffffffffffffffffffffffffff167f8be0079c531659141344cd1fd0a4f28419497f9722a3daafe3b4186f6b6457e060405160405180910390a360008060006101000a81548173ffffffffffffffffffffffffffffffffffffffff021916908373ffffffffffffffffffffffffffffffffffffffff160217905550565b60008060009054906101000a900473ffffffffffffffffffffffffffffffffffffffff16905090565b60008060009054906101000a900473ffffffffffffffffffffffffffffffffffffffff1673ffffffffffffffffffffffffffffffffffffffff163373ffffffffffffffffffffffffffffffffffffffff1614905090565b6000806000600160009054906101000a900473ffffffffffffffffffffffffffffffffffffffff1692503373ffffffffffffffffffffffffffffffffffffffff168373ffffffffffffffffffffffffffffffffffffffff1663c4552791610b29610a44565b6040518263ffffffff167c0100000000000000000000000000000000000000000000000000000000028152600401808273ffffffffffffffffffffffffffffffffffffffff1673ffffffffffffffffffffffffffffffffffffffff168152602001915050602060405180830381600087803b158015610ba757600080fd5b505af1158015610bbb573d6000803e3d6000fd5b505050506040513d6020811015610bd157600080fd5b810190808051906020019092919050505073ffffffffffffffffffffffffffffffffffffffff161480610c3657503373ffffffffffffffffffffffffffffffffffffffff16610c1e610a44565b73ffffffffffffffffffffffffffffffffffffffff16145b1515610c3e57fe5b610c4785610797565b1515610c5257600080fd5b600260009054906101000a900473ffffffffffffffffffffffffffffffffffffffff169150600854851415610d4b578173ffffffffffffffffffffffffffffffffffffffff1663755edd17856040518263ffffffff167c0100000000000000000000000000000000000000000000000000000000028152600401808273ffffffffffffffffffffffffffffffffffffffff1673ffffffffffffffffffffffffffffffffffffffff168152602001915050600060405180830381600087803b158015610d1c57600080fd5b505af1158015610d30573d6000803e3d6000fd5b50505050600460008154809291906001019190505550610e38565b600954851415610e3757600090505b600a54811015610e36578173ffffffffffffffffffffffffffffffffffffffff1663755edd17856040518263ffffffff167c0100000000000000000000000000000000000000000000000000000000028152600401808273ffffffffffffffffffffffffffffffffffffffff1673ffffffffffffffffffffffffffffffffffffffff168152602001915050600060405180830381600087803b158015610dff57600080fd5b505af1158015610e13573d6000803e3d6000fd5b505050506005600081548092919060010191905055508080600101915050610d5a565b5b5b5050505050565b60606040805190810160405280600381526020017f4c50430000000000000000000000000000000000000000000000000000000000815250905090565b60006001905090565b6060610f3360038054600181600116156101000203166002900480601f016020809104026020016040519081016040528092919081815260200182805460018160011615610100020316600290048015610f205780601f10610ef557610100808354040283529160200191610f20565b820191906000526020600020905b815481529060010190602001808311610f0357829003601f168201915b5050505050610f2e8461117e565b6112d5565b9050919050565b600160009054906101000a900473ffffffffffffffffffffffffffffffffffffffff1681565b6000808373ffffffffffffffffffffffffffffffffffffffff16610f82610a44565b73ffffffffffffffffffffffffffffffffffffffff16148015610fd057508273ffffffffffffffffffffffffffffffffffffffff168473ffffffffffffffffffffffffffffffffffffffff16145b15610fde5760019150611158565b600160009054906101000a900473ffffffffffffffffffffffffffffffffffffffff1690508373ffffffffffffffffffffffffffffffffffffffff16611022610a44565b73ffffffffffffffffffffffffffffffffffffffff1614801561114557508273ffffffffffffffffffffffffffffffffffffffff168173ffffffffffffffffffffffffffffffffffffffff1663c4552791866040518263ffffffff167c0100000000000000000000000000000000000000000000000000000000028152600401808273ffffffffffffffffffffffffffffffffffffffff1673ffffffffffffffffffffffffffffffffffffffff168152602001915050602060405180830381600087803b1580156110f257600080fd5b505af1158015611106573d6000803e3d6000fd5b505050506040513d602081101561111c57600080fd5b810190808051906020019092919050505073ffffffffffffffffffffffffffffffffffffffff16145b156111535760019150611158565b600091505b5092915050565b611167610a6d565b151561117257600080fd5b61117b8161131c565b50565b606060008060606000808614156111cc576040805190810160405280600181526020017f300000000000000000000000000000000000000000000000000000000000000081525094506112cc565b8593505b6000841415156111f6578280600101935050600a848115156111ee57fe5b0493506111d0565b826040519080825280601f01601f1916602001820160405280156112295781602001602082028038833980820191505090505b5091506001830390505b6000861415156112c857600a8681151561124957fe5b066030017f01000000000000000000000000000000000000000000000000000000000000000282828060019003935081518110151561128457fe5b9060200101907effffffffffffffffffffffffffffffffffffffffffffffffffffffffffffff1916908160001a905350600a868115156112c057fe5b049550611233565b8194505b50505050919050565b60606113148383602060405190810160405280600081525060206040519081016040528060008152506020604051908101604052806000815250611416565b905092915050565b600073ffffffffffffffffffffffffffffffffffffffff168173ffffffffffffffffffffffffffffffffffffffff161415151561135857600080fd5b8073ffffffffffffffffffffffffffffffffffffffff166000809054906101000a900473ffffffffffffffffffffffffffffffffffffffff1673ffffffffffffffffffffffffffffffffffffffff167f8be0079c531659141344cd1fd0a4f28419497f9722a3daafe3b4186f6b6457e060405160405180910390a3806000806101000a81548173ffffffffffffffffffffffffffffffffffffffff021916908373ffffffffffffffffffffffffffffffffffffffff16021790555050565b6060806060806060806060806000808e98508d97508c96508b95508a94508451865188518a518c51010101016040519080825280601f01601f1916602001820160405280156114745781602001602082028038833980820191505090505b50935083925060009150600090505b885181101561153657888181518110151561149a57fe5b9060200101517f010000000000000000000000000000000000000000000000000000000000000090047f01000000000000000000000000000000000000000000000000000000000000000283838060010194508151811015156114f957fe5b9060200101907effffffffffffffffffffffffffffffffffffffffffffffffffffffffffffff1916908160001a9053508080600101915050611483565b600090505b87518110156115ee57878181518110151561155257fe5b9060200101517f010000000000000000000000000000000000000000000000000000000000000090047f01000000000000000000000000000000000000000000000000000000000000000283838060010194508151811015156115b157fe5b9060200101907effffffffffffffffffffffffffffffffffffffffffffffffffffffffffffff1916908160001a905350808060010191505061153b565b600090505b86518110156116a657868181518110151561160a57fe5b9060200101517f010000000000000000000000000000000000000000000000000000000000000090047f010000000000000000000000000000000000000000000000000000000000000002838380600101945081518110151561166957fe5b9060200101907effffffffffffffffffffffffffffffffffffffffffffffffffffffffffffff1916908160001a90535080806001019150506115f3565b600090505b855181101561175e5785818151811015156116c257fe5b9060200101517f010000000000000000000000000000000000000000000000000000000000000090047f010000000000000000000000000000000000000000000000000000000000000002838380600101945081518110151561172157fe5b9060200101907effffffffffffffffffffffffffffffffffffffffffffffffffffffffffffff1916908160001a90535080806001019150506116ab565b600090505b845181101561181657848181518110151561177a57fe5b9060200101517f010000000000000000000000000000000000000000000000000000000000000090047f01000000000000000000000000000000000000000000000000000000000000000283838060010194508151811015156117d957fe5b9060200101907effffffffffffffffffffffffffffffffffffffffffffffffffffffffffffff1916908160001a9053508080600101915050611763565b829950505050505050505050959450505050505600a165627a7a723058203a9d5c95b3b80b1720451b8829eaca4940f55726d79a78498c74210b47c5cef10029",
  "source": "pragma solidity ^0.4.24;\n\nimport \"../node_modules/openzeppelin-solidity/contracts/ownership/Ownable.sol\";\nimport \"./Factory.sol\";\nimport \"./Pixel.sol\";\nimport \"./Strings.sol\";\n\ncontract PixelFactory is Factory, Ownable {\n  using Strings for string;\n\n  address public proxyRegistryAddress;\n  address public nftAddress;\n  string public baseURI = \"https://last-pixel-api.herokuapp.com/api/factory/\";\n  uint singlePixelOptionMinted;\n  uint multiplePixelsOptionMinted;\n\n  /**\n   * Enforce the existence of only 100 OpenSea pixels.\n   */\n  uint PIXEL_SUPPLY = 10000;\n\n  /**\n   * Three different options for minting Pixels (basic, premium, and gold).\n   */\n  uint NUM_OPTIONS = 2;\n  uint SINGLE_PIXEL_OPTION = 0;\n  uint MULTIPLE_PIXEL_OPTION = 1;\n  uint NUM_PIXELS_IN_MULTIPLE_PIXEL_OPTION = 25;\n  uint SINGLE_PIXEL_OPTION_ALLOCATED = 5000;\n  uint MULTIPLE_PIXELS_OPTION_ALLOCATED = 5000;\n\n  constructor(address _proxyRegistryAddress, address _nftAddress) public {\n    proxyRegistryAddress = _proxyRegistryAddress;\n    nftAddress = _nftAddress;\n\n  }\n\n  function name() external view returns (string) {\n    return \"Last Pixel Game Pixel Item Sale\";\n  }\n\n  function symbol() external view returns (string) {\n    return \"LPC\";\n  }\n\n  function supportsFactoryInterface() public view returns (bool) {\n    return true;\n  }\n\n  function numOptions() public view returns (uint) {\n    return NUM_OPTIONS;\n  }\n  \n  function mint(uint _optionId, address _toAddress) public {\n    // Must be sent from the owner proxy or owner.\n    ProxyRegistry proxyRegistry = ProxyRegistry(proxyRegistryAddress);\n    assert(proxyRegistry.proxies(owner()) == msg.sender || owner() == msg.sender);\n    require(canMint(_optionId));\n\n    Pixel openSeaPixel = Pixel(nftAddress);\n    if (_optionId == SINGLE_PIXEL_OPTION) {\n      openSeaPixel.mintTo(_toAddress);\n      singlePixelOptionMinted++;\n    } else if (_optionId == MULTIPLE_PIXEL_OPTION) {\n      for (uint i = 0; i < NUM_PIXELS_IN_MULTIPLE_PIXEL_OPTION; i++) {\n        openSeaPixel.mintTo(_toAddress);\n        multiplePixelsOptionMinted++;\n      }\n    }\n  }\n\n  function canMint(uint _optionId) public view returns (bool) {\n    if (_optionId >= NUM_OPTIONS) {\n      return false;\n    }\n\n    Pixel openSeaPixel = Pixel(nftAddress);\n    uint pixelSupply = openSeaPixel.totalSupply();\n\n    uint numItemsAllocated = 0;\n    if (_optionId == SINGLE_PIXEL_OPTION) {\n      numItemsAllocated = 1;\n      return singlePixelOptionMinted <= (5000 - numItemsAllocated);\n    } else if (_optionId == MULTIPLE_PIXEL_OPTION) {\n      numItemsAllocated = NUM_PIXELS_IN_MULTIPLE_PIXEL_OPTION;\n      return multiplePixelsOptionMinted <= (MULTIPLE_PIXELS_OPTION_ALLOCATED - numItemsAllocated);\n    } \n  }\n  \n  function tokenURI(uint _optionId) public view returns (string) {\n    return Strings.strConcat(\n        baseURI,\n        Strings.uint2str(_optionId)\n    );\n  }\n\n  /**\n   * Hack to get things to work automatically on OpenSea.\n   * Use transferFrom so the frontend doesn't have to worry about different method names.\n   */\n  function transferFrom(address _from, address _to, uint _tokenId) public {\n    mint(_tokenId, _to);\n  }\n\n  /**\n   * Hack to get things to work automatically on OpenSea.\n   * Use isApprovedForAll so the frontend doesn't have to worry about different method names.\n   */\n  function isApprovedForAll(\n    address _owner,\n    address _operator\n  )\n    public\n    view\n    returns (bool)\n  {\n    if (owner() == _owner && _owner == _operator) {\n      return true;\n    }\n\n    ProxyRegistry proxyRegistry = ProxyRegistry(proxyRegistryAddress);\n    if (owner() == _owner && proxyRegistry.proxies(_owner) == _operator) {\n      return true;\n    }\n\n    return false;\n  }\n\n  /**\n   * Hack to get things to work automatically on OpenSea.\n   * Use isApprovedForAll so the frontend doesn't have to worry about different method names.\n   */\n  function ownerOf(uint _tokenId) public view returns (address _owner) {\n    return owner();\n  }\n}",
  "sourcePath": "/Users/Amir/Desktop/pixel-factory/contracts/PixelFactory.sol",
  "compiler": {
    "name": "solc",
    "version": "0.4.24+commit.e67f0147.Emscripten.clang"
  },
  "schemaVersion": "2.0.1",
  "updatedAt": "2018-11-27T18:55:59.599Z"
}